{
  "_format": "hh-sol-artifact-1",
  "contractName": "FundMe",
  "sourceName": "contracts/FundMe.sol",
  "abi": [
    {
      "inputs": [
        {
          "internalType": "uint256",
          "name": "_lockTimePeriod",
          "type": "uint256"
        }
      ],
      "stateMutability": "nonpayable",
      "type": "constructor"
    },
    {
      "inputs": [
        {
          "internalType": "address",
          "name": "newAddress",
          "type": "address"
        }
      ],
      "name": "changeOwnerShip",
      "outputs": [],
      "stateMutability": "nonpayable",
      "type": "function"
    },
    {
      "inputs": [],
      "name": "deployTimeStamp",
      "outputs": [
        {
          "internalType": "uint256",
          "name": "",
          "type": "uint256"
        }
      ],
      "stateMutability": "view",
      "type": "function"
    },
    {
      "inputs": [],
      "name": "fund",
      "outputs": [],
      "stateMutability": "payable",
      "type": "function"
    },
    {
      "inputs": [
        {
          "internalType": "address",
          "name": "",
          "type": "address"
        }
      ],
      "name": "fundersToAmount",
      "outputs": [
        {
          "internalType": "uint256",
          "name": "",
          "type": "uint256"
        }
      ],
      "stateMutability": "view",
      "type": "function"
    },
    {
      "inputs": [],
      "name": "getChainlinkDataFeedLatestAnswer",
      "outputs": [
        {
          "internalType": "int256",
          "name": "",
          "type": "int256"
        }
      ],
      "stateMutability": "view",
      "type": "function"
    },
    {
      "inputs": [],
      "name": "getFund",
      "outputs": [],
      "stateMutability": "nonpayable",
      "type": "function"
    },
    {
      "inputs": [
        {
          "internalType": "string",
          "name": "param",
          "type": "string"
        }
      ],
      "name": "getFundFromCall",
      "outputs": [
        {
          "internalType": "string",
          "name": "",
          "type": "string"
        }
      ],
      "stateMutability": "nonpayable",
      "type": "function"
    },
    {
      "inputs": [],
      "name": "getFundFromSend",
      "outputs": [],
      "stateMutability": "nonpayable",
      "type": "function"
    },
    {
      "inputs": [],
      "name": "getFundFromTransfer",
      "outputs": [],
      "stateMutability": "nonpayable",
      "type": "function"
    },
    {
      "inputs": [],
      "name": "getFundSuccess",
      "outputs": [
        {
          "internalType": "bool",
          "name": "",
          "type": "bool"
        }
      ],
      "stateMutability": "view",
      "type": "function"
    },
    {
      "inputs": [
        {
          "internalType": "address",
          "name": "_address",
          "type": "address"
        }
      ],
      "name": "getFunderBalance",
      "outputs": [
        {
          "internalType": "uint256",
          "name": "",
          "type": "uint256"
        }
      ],
      "stateMutability": "view",
      "type": "function"
    },
    {
      "inputs": [],
      "name": "lockTimePeriod",
      "outputs": [
        {
          "internalType": "uint256",
          "name": "",
          "type": "uint256"
        }
      ],
      "stateMutability": "view",
      "type": "function"
    },
    {
      "inputs": [],
      "name": "owner",
      "outputs": [
        {
          "internalType": "address",
          "name": "",
          "type": "address"
        }
      ],
      "stateMutability": "view",
      "type": "function"
    },
    {
      "inputs": [],
      "name": "refund",
      "outputs": [],
      "stateMutability": "nonpayable",
      "type": "function"
    },
    {
      "inputs": [
        {
          "internalType": "address",
          "name": "_erc20Addr",
          "type": "address"
        }
      ],
      "name": "setErc20Addr",
      "outputs": [],
      "stateMutability": "nonpayable",
      "type": "function"
    },
    {
      "inputs": [
        {
          "internalType": "address",
          "name": "funder",
          "type": "address"
        },
        {
          "internalType": "uint256",
          "name": "amountToUpdate",
          "type": "uint256"
        }
      ],
      "name": "setFunderToAmount",
      "outputs": [],
      "stateMutability": "nonpayable",
      "type": "function"
    }
  ],
  "bytecode": "0x60806040526040518060400160405280600681526020017f46756e644d65000000000000000000000000000000000000000000000000000081525060039081610048919061038c565b506000600760006101000a81548160ff02191690831515021790555034801561007057600080fd5b506040516122f53803806122f58339818101604052810190610092919061048f565b33600260006101000a81548173ffffffffffffffffffffffffffffffffffffffff021916908373ffffffffffffffffffffffffffffffffffffffff16021790555073694aa1769357215de4fac081bf1f309adc325306600460006101000a81548173ffffffffffffffffffffffffffffffffffffffff021916908373ffffffffffffffffffffffffffffffffffffffff1602179055504260068190555080600581905550506104bc565b600081519050919050565b7f4e487b7100000000000000000000000000000000000000000000000000000000600052604160045260246000fd5b7f4e487b7100000000000000000000000000000000000000000000000000000000600052602260045260246000fd5b600060028204905060018216806101bd57607f821691505b6020821081036101d0576101cf610176565b5b50919050565b60008190508160005260206000209050919050565b60006020601f8301049050919050565b600082821b905092915050565b6000600883026102387fffffffffffffffffffffffffffffffffffffffffffffffffffffffffffffffff826101fb565b61024286836101fb565b95508019841693508086168417925050509392505050565b6000819050919050565b6000819050919050565b600061028961028461027f8461025a565b610264565b61025a565b9050919050565b6000819050919050565b6102a38361026e565b6102b76102af82610290565b848454610208565b825550505050565b600090565b6102cc6102bf565b6102d781848461029a565b505050565b5b818110156102fb576102f06000826102c4565b6001810190506102dd565b5050565b601f82111561034057610311816101d6565b61031a846101eb565b81016020851015610329578190505b61033d610335856101eb565b8301826102dc565b50505b505050565b600082821c905092915050565b600061036360001984600802610345565b1980831691505092915050565b600061037c8383610352565b9150826002028217905092915050565b6103958261013c565b67ffffffffffffffff8111156103ae576103ad610147565b5b6103b882546101a5565b6103c38282856102ff565b600060209050601f8311600181146103f657600084156103e4578287015190505b6103ee8582610370565b865550610456565b601f198416610404866101d6565b60005b8281101561042c57848901518255600182019150602085019450602081019050610407565b868310156104495784890151610445601f891682610352565b8355505b6001600288020188555050505b505050505050565b600080fd5b61046c8161025a565b811461047757600080fd5b50565b60008151905061048981610463565b92915050565b6000602082840312156104a5576104a461045e565b5b60006104b38482850161047a565b91505092915050565b611e2a806104cb6000396000f3fe6080604052600436106100f35760003560e01c80639f883a051161008a578063bea4dfb511610059578063bea4dfb5146102bd578063d39cf006146102e8578063d953a86714610311578063da4658e01461033c576100f3565b80639f883a05146101fc578063a02a8bf514610239578063b60d428814610276578063b8b3d85b14610280576100f3565b80637eeea7b2116100c65780637eeea7b21461017857806380f732651461018f5780638da5cb5b146101ba5780638edd6eb6146101e5576100f3565b806302be8e4e146100f857806313ffff011461012157806333c6a6eb1461014a578063590e1ae314610161575b600080fd5b34801561010457600080fd5b5061011f600480360381019061011a919061120e565b610367565b005b34801561012d57600080fd5b506101486004803603810190610143919061120e565b61043b565b005b34801561015657600080fd5b5061015f61050f565b005b34801561016d57600080fd5b50610176610688565b005b34801561018457600080fd5b5061018d6108d5565b005b34801561019b57600080fd5b506101a4610a1b565b6040516101b19190611254565b60405180910390f35b3480156101c657600080fd5b506101cf610a21565b6040516101dc919061127e565b60405180910390f35b3480156101f157600080fd5b506101fa610a47565b005b34801561020857600080fd5b50610223600480360381019061021e919061120e565b610c5f565b6040516102309190611254565b60405180910390f35b34801561024557600080fd5b50610260600480360381019061025b91906113df565b610c77565b60405161026d91906114a7565b60405180910390f35b61027e610ed0565b005b34801561028c57600080fd5b506102a760048036038101906102a2919061120e565b610fc3565b6040516102b49190611254565b60405180910390f35b3480156102c957600080fd5b506102d261100b565b6040516102df91906114e2565b60405180910390f35b3480156102f457600080fd5b5061030f600480360381019061030a9190611529565b6110ac565b005b34801561031d57600080fd5b50610326611183565b6040516103339190611254565b60405180910390f35b34801561034857600080fd5b50610351611189565b60405161035e9190611584565b60405180910390f35b600260009054906101000a900473ffffffffffffffffffffffffffffffffffffffff1673ffffffffffffffffffffffffffffffffffffffff163373ffffffffffffffffffffffffffffffffffffffff16146103f7576040517f08c379a00000000000000000000000000000000000000000000000000000000081526004016103ee906115eb565b60405180910390fd5b80600260006101000a81548173ffffffffffffffffffffffffffffffffffffffff021916908373ffffffffffffffffffffffffffffffffffffffff16021790555050565b600260009054906101000a900473ffffffffffffffffffffffffffffffffffffffff1673ffffffffffffffffffffffffffffffffffffffff163373ffffffffffffffffffffffffffffffffffffffff16146104cb576040517f08c379a00000000000000000000000000000000000000000000000000000000081526004016104c290611657565b60405180910390fd5b80600760016101000a81548173ffffffffffffffffffffffffffffffffffffffff021916908373ffffffffffffffffffffffffffffffffffffffff16021790555050565b600260009054906101000a900473ffffffffffffffffffffffffffffffffffffffff1673ffffffffffffffffffffffffffffffffffffffff163373ffffffffffffffffffffffffffffffffffffffff161461059f576040517f08c379a000000000000000000000000000000000000000000000000000000000815260040161059690611657565b60405180910390fd5b671bc16d674ec800004710156105ea576040517f08c379a00000000000000000000000000000000000000000000000000000000081526004016105e1906116c3565b60405180910390fd5b6000600260009054906101000a900473ffffffffffffffffffffffffffffffffffffffff1673ffffffffffffffffffffffffffffffffffffffff166108fc479081150290604051600060405180830381858888f19350505050905080610685576040517f08c379a000000000000000000000000000000000000000000000000000000000815260040161067c9061172f565b60405180910390fd5b50565b42600554600654610699919061177e565b106106d9576040517f08c379a00000000000000000000000000000000000000000000000000000000081526004016106d0906117fe565b60405180910390fd5b60008060003373ffffffffffffffffffffffffffffffffffffffff1673ffffffffffffffffffffffffffffffffffffffff168152602001908152602001600020541161075a576040517f08c379a00000000000000000000000000000000000000000000000000000000081526004016107519061186a565b60405180910390fd5b671bc16d674ec8000047106107a4576040517f08c379a000000000000000000000000000000000000000000000000000000000815260040161079b906118d6565b60405180910390fd5b60003373ffffffffffffffffffffffffffffffffffffffff166000803373ffffffffffffffffffffffffffffffffffffffff1673ffffffffffffffffffffffffffffffffffffffff1681526020019081526020016000205460405161080890611927565b60006040518083038185875af1925050503d8060008114610845576040519150601f19603f3d011682016040523d82523d6000602084013e61084a565b606091505b505090508061088e576040517f08c379a000000000000000000000000000000000000000000000000000000000815260040161088590611988565b60405180910390fd5b60008060003373ffffffffffffffffffffffffffffffffffffffff1673ffffffffffffffffffffffffffffffffffffffff1681526020019081526020016000208190555050565b600260009054906101000a900473ffffffffffffffffffffffffffffffffffffffff1673ffffffffffffffffffffffffffffffffffffffff163373ffffffffffffffffffffffffffffffffffffffff1614610965576040517f08c379a000000000000000000000000000000000000000000000000000000000815260040161095c90611657565b60405180910390fd5b671bc16d674ec800004710156109b0576040517f08c379a00000000000000000000000000000000000000000000000000000000081526004016109a7906119f4565b60405180910390fd5b600260009054906101000a900473ffffffffffffffffffffffffffffffffffffffff1673ffffffffffffffffffffffffffffffffffffffff166108fc479081150290604051600060405180830381858888f19350505050158015610a18573d6000803e3d6000fd5b50565b60065481565b600260009054906101000a900473ffffffffffffffffffffffffffffffffffffffff1681565b600260009054906101000a900473ffffffffffffffffffffffffffffffffffffffff1673ffffffffffffffffffffffffffffffffffffffff163373ffffffffffffffffffffffffffffffffffffffff1614610ad7576040517f08c379a0000000000000000000000000000000000000000000000000000000008152600401610ace90611657565b60405180910390fd5b671bc16d674ec80000471015610b22576040517f08c379a0000000000000000000000000000000000000000000000000000000008152600401610b1990611a60565b60405180910390fd5b42600554600654610b33919061177e565b10610b73576040517f08c379a0000000000000000000000000000000000000000000000000000000008152600401610b6a906117fe565b60405180910390fd5b6000600260009054906101000a900473ffffffffffffffffffffffffffffffffffffffff1673ffffffffffffffffffffffffffffffffffffffff1647604051610bbb90611927565b60006040518083038185875af1925050503d8060008114610bf8576040519150601f19603f3d011682016040523d82523d6000602084013e610bfd565b606091505b5050905080610c41576040517f08c379a0000000000000000000000000000000000000000000000000000000008152600401610c3890611acc565b60405180910390fd5b6001600760006101000a81548160ff02191690831515021790555050565b60006020528060005260406000206000915090505481565b6060600260009054906101000a900473ffffffffffffffffffffffffffffffffffffffff1673ffffffffffffffffffffffffffffffffffffffff163373ffffffffffffffffffffffffffffffffffffffff1614610d09576040517f08c379a0000000000000000000000000000000000000000000000000000000008152600401610d0090611657565b60405180910390fd5b671bc16d674ec80000471015610d54576040517f08c379a0000000000000000000000000000000000000000000000000000000008152600401610d4b90611a60565b60405180910390fd5b600080600260009054906101000a900473ffffffffffffffffffffffffffffffffffffffff1673ffffffffffffffffffffffffffffffffffffffff164785604051602401610da291906114a7565b6040516020818303038152906040527f2493d434000000000000000000000000000000000000000000000000000000007bffffffffffffffffffffffffffffffffffffffffffffffffffffffff19166020820180517bffffffffffffffffffffffffffffffffffffffffffffffffffffffff8381831617835250505050604051610e2c9190611b28565b60006040518083038185875af1925050503d8060008114610e69576040519150601f19603f3d011682016040523d82523d6000602084013e610e6e565b606091505b509150915081610eb3576040517f08c379a0000000000000000000000000000000000000000000000000000000008152600401610eaa90611acc565b60405180910390fd5b80806020019051810190610ec79190611baf565b92505050919050565b670de0b6b3a7640000341015610f1b576040517f08c379a0000000000000000000000000000000000000000000000000000000008152600401610f1290611c44565b60405180910390fd5b346000803373ffffffffffffffffffffffffffffffffffffffff1673ffffffffffffffffffffffffffffffffffffffff168152602001908152602001600020819055506001339080600181540180825580915050600190039060005260206000200160009091909190916101000a81548173ffffffffffffffffffffffffffffffffffffffff021916908373ffffffffffffffffffffffffffffffffffffffff160217905550565b60008060008373ffffffffffffffffffffffffffffffffffffffff1673ffffffffffffffffffffffffffffffffffffffff168152602001908152602001600020549050919050565b600080600460009054906101000a900473ffffffffffffffffffffffffffffffffffffffff1673ffffffffffffffffffffffffffffffffffffffff1663feaf968c6040518163ffffffff1660e01b815260040160a060405180830381865afa15801561107b573d6000803e3d6000fd5b505050506040513d601f19601f8201168201806040525081019061109f9190611ce7565b5050509150508091505090565b600760019054906101000a900473ffffffffffffffffffffffffffffffffffffffff1673ffffffffffffffffffffffffffffffffffffffff163373ffffffffffffffffffffffffffffffffffffffff161461113c576040517f08c379a000000000000000000000000000000000000000000000000000000000815260040161113390611dd4565b60405180910390fd5b806000808473ffffffffffffffffffffffffffffffffffffffff1673ffffffffffffffffffffffffffffffffffffffff168152602001908152602001600020819055505050565b60055481565b600760009054906101000a900460ff1681565b6000604051905090565b600080fd5b600080fd5b600073ffffffffffffffffffffffffffffffffffffffff82169050919050565b60006111db826111b0565b9050919050565b6111eb816111d0565b81146111f657600080fd5b50565b600081359050611208816111e2565b92915050565b600060208284031215611224576112236111a6565b5b6000611232848285016111f9565b91505092915050565b6000819050919050565b61124e8161123b565b82525050565b60006020820190506112696000830184611245565b92915050565b611278816111d0565b82525050565b6000602082019050611293600083018461126f565b92915050565b600080fd5b600080fd5b6000601f19601f8301169050919050565b7f4e487b7100000000000000000000000000000000000000000000000000000000600052604160045260246000fd5b6112ec826112a3565b810181811067ffffffffffffffff8211171561130b5761130a6112b4565b5b80604052505050565b600061131e61119c565b905061132a82826112e3565b919050565b600067ffffffffffffffff82111561134a576113496112b4565b5b611353826112a3565b9050602081019050919050565b82818337600083830152505050565b600061138261137d8461132f565b611314565b90508281526020810184848401111561139e5761139d61129e565b5b6113a9848285611360565b509392505050565b600082601f8301126113c6576113c5611299565b5b81356113d684826020860161136f565b91505092915050565b6000602082840312156113f5576113f46111a6565b5b600082013567ffffffffffffffff811115611413576114126111ab565b5b61141f848285016113b1565b91505092915050565b600081519050919050565b600082825260208201905092915050565b60005b83811015611462578082015181840152602081019050611447565b60008484015250505050565b600061147982611428565b6114838185611433565b9350611493818560208601611444565b61149c816112a3565b840191505092915050565b600060208201905081810360008301526114c1818461146e565b905092915050565b6000819050919050565b6114dc816114c9565b82525050565b60006020820190506114f760008301846114d3565b92915050565b6115068161123b565b811461151157600080fd5b50565b600081359050611523816114fd565b92915050565b600080604083850312156115405761153f6111a6565b5b600061154e858286016111f9565b925050602061155f85828601611514565b9150509250929050565b60008115159050919050565b61157e81611569565b82525050565b60006020820190506115996000830184611575565b92915050565b7f796f7520617265206e6f74206f776e6572000000000000000000000000000000600082015250565b60006115d5601183611433565b91506115e08261159f565b602082019050919050565b60006020820190508181036000830152611604816115c8565b9050919050565b7f4f6e6c79206f776e65722063616e2063616c6c00000000000000000000000000600082015250565b6000611641601383611433565b915061164c8261160b565b602082019050919050565b6000602082019050818103600083015261167081611634565b9050919050565b7f4e6f7420656e6f7567682066756e642073656e64000000000000000000000000600082015250565b60006116ad601483611433565b91506116b882611677565b602082019050919050565b600060208201905081810360008301526116dc816116a0565b9050919050565b7f4661696c656420746f2073656e64000000000000000000000000000000000000600082015250565b6000611719600e83611433565b9150611724826116e3565b602082019050919050565b600060208201905081810360008301526117488161170c565b9050919050565b7f4e487b7100000000000000000000000000000000000000000000000000000000600052601160045260246000fd5b60006117898261123b565b91506117948361123b565b92508282019050808211156117ac576117ab61174f565b5b92915050565b7f46756e647320617265206c6f636b656400000000000000000000000000000000600082015250565b60006117e8601083611433565b91506117f3826117b2565b602082019050919050565b60006020820190508181036000830152611817816117db565b9050919050565b7f4e6f2066756e6420746f20726566756e64000000000000000000000000000000600082015250565b6000611854601183611433565b915061185f8261181e565b602082019050919050565b6000602082019050818103600083015261188381611847565b9050919050565b7f46756e6420746172676574206e6f742072656163686564000000000000000000600082015250565b60006118c0601783611433565b91506118cb8261188a565b602082019050919050565b600060208201905081810360008301526118ef816118b3565b9050919050565b600081905092915050565b50565b60006119116000836118f6565b915061191c82611901565b600082019050919050565b600061193282611904565b9150819050919050565b7f4661696c656420746f20726566756e6400000000000000000000000000000000600082015250565b6000611972601083611433565b915061197d8261193c565b602082019050919050565b600060208201905081810360008301526119a181611965565b9050919050565b7f4e6f7420656e6f7567682066756e64207472616e736665720000000000000000600082015250565b60006119de601883611433565b91506119e9826119a8565b602082019050919050565b60006020820190508181036000830152611a0d816119d1565b9050919050565b7f4e6f7420656e6f7567682066756e640000000000000000000000000000000000600082015250565b6000611a4a600f83611433565b9150611a5582611a14565b602082019050919050565b60006020820190508181036000830152611a7981611a3d565b9050919050565b7f4661696c656420746f2063616c6c000000000000000000000000000000000000600082015250565b6000611ab6600e83611433565b9150611ac182611a80565b602082019050919050565b60006020820190508181036000830152611ae581611aa9565b9050919050565b600081519050919050565b6000611b0282611aec565b611b0c81856118f6565b9350611b1c818560208601611444565b80840191505092915050565b6000611b348284611af7565b915081905092915050565b6000611b52611b4d8461132f565b611314565b905082815260208101848484011115611b6e57611b6d61129e565b5b611b79848285611444565b509392505050565b600082601f830112611b9657611b95611299565b5b8151611ba6848260208601611b3f565b91505092915050565b600060208284031215611bc557611bc46111a6565b5b600082015167ffffffffffffffff811115611be357611be26111ab565b5b611bef84828501611b81565b91505092915050565b7f6e656564206d6f72652065746800000000000000000000000000000000000000600082015250565b6000611c2e600d83611433565b9150611c3982611bf8565b602082019050919050565b60006020820190508181036000830152611c5d81611c21565b9050919050565b600069ffffffffffffffffffff82169050919050565b611c8381611c64565b8114611c8e57600080fd5b50565b600081519050611ca081611c7a565b92915050565b611caf816114c9565b8114611cba57600080fd5b50565b600081519050611ccc81611ca6565b92915050565b600081519050611ce1816114fd565b92915050565b600080600080600060a08688031215611d0357611d026111a6565b5b6000611d1188828901611c91565b9550506020611d2288828901611cbd565b9450506040611d3388828901611cd2565b9350506060611d4488828901611cd2565b9250506080611d5588828901611c91565b9150509295509295909350565b7f796f7520646f206e6f742068617665207065726d697373696f6e20746f20636160008201527f6c6c20746869732066756e74696f6e0000000000000000000000000000000000602082015250565b6000611dbe602f83611433565b9150611dc982611d62565b604082019050919050565b60006020820190508181036000830152611ded81611db1565b905091905056fea26469706673582212201c95337fb58836974cc16c530e5119f2a48618d84dab1a2b1a93fd1e5b2a62bb64736f6c634300081c0033",
  "linkReferences": {},
  "deployedLinkReferences": {}
}