{
  "_format": "hh-sol-artifact-1",
  "contractName": "FundMe",
  "sourceName": "contracts/FundMe.sol",
  "abi": [
    {
      "inputs": [
        {
          "internalType": "uint256",
          "name": "_lockTimePeriod",
          "type": "uint256"
        }
      ],
      "stateMutability": "nonpayable",
      "type": "constructor"
    },
    {
      "anonymous": false,
      "inputs": [
        {
          "indexed": true,
          "internalType": "address",
          "name": "funder",
          "type": "address"
        },
        {
          "indexed": false,
          "internalType": "uint256",
          "name": "amount",
          "type": "uint256"
        }
      ],
      "name": "Funded",
      "type": "event"
    },
    {
      "inputs": [
        {
          "internalType": "address",
          "name": "newAddress",
          "type": "address"
        }
      ],
      "name": "changeOwnerShip",
      "outputs": [],
      "stateMutability": "nonpayable",
      "type": "function"
    },
    {
      "inputs": [],
      "name": "deployTimeStamp",
      "outputs": [
        {
          "internalType": "uint256",
          "name": "",
          "type": "uint256"
        }
      ],
      "stateMutability": "view",
      "type": "function"
    },
    {
      "inputs": [],
      "name": "fund",
      "outputs": [],
      "stateMutability": "payable",
      "type": "function"
    },
    {
      "inputs": [
        {
          "internalType": "address",
          "name": "",
          "type": "address"
        }
      ],
      "name": "fundersToAmount",
      "outputs": [
        {
          "internalType": "uint256",
          "name": "",
          "type": "uint256"
        }
      ],
      "stateMutability": "view",
      "type": "function"
    },
    {
      "inputs": [
        {
          "internalType": "address",
          "name": "_address",
          "type": "address"
        }
      ],
      "name": "getBalance",
      "outputs": [
        {
          "internalType": "uint256",
          "name": "",
          "type": "uint256"
        }
      ],
      "stateMutability": "view",
      "type": "function"
    },
    {
      "inputs": [],
      "name": "getChainlinkDataFeedLatestAnswer",
      "outputs": [
        {
          "internalType": "int256",
          "name": "",
          "type": "int256"
        }
      ],
      "stateMutability": "view",
      "type": "function"
    },
    {
      "inputs": [],
      "name": "getFund",
      "outputs": [],
      "stateMutability": "nonpayable",
      "type": "function"
    },
    {
      "inputs": [
        {
          "internalType": "string",
          "name": "param",
          "type": "string"
        }
      ],
      "name": "getFundFromCall",
      "outputs": [
        {
          "internalType": "string",
          "name": "",
          "type": "string"
        }
      ],
      "stateMutability": "nonpayable",
      "type": "function"
    },
    {
      "inputs": [],
      "name": "getFundFromSend",
      "outputs": [],
      "stateMutability": "nonpayable",
      "type": "function"
    },
    {
      "inputs": [],
      "name": "getFundFromTransfer",
      "outputs": [],
      "stateMutability": "nonpayable",
      "type": "function"
    },
    {
      "inputs": [],
      "name": "getFundSuccess",
      "outputs": [
        {
          "internalType": "bool",
          "name": "",
          "type": "bool"
        }
      ],
      "stateMutability": "view",
      "type": "function"
    },
    {
      "inputs": [
        {
          "internalType": "address",
          "name": "_address",
          "type": "address"
        }
      ],
      "name": "getFunderBalance",
      "outputs": [
        {
          "internalType": "uint256",
          "name": "",
          "type": "uint256"
        }
      ],
      "stateMutability": "view",
      "type": "function"
    },
    {
      "inputs": [],
      "name": "lockTimePeriod",
      "outputs": [
        {
          "internalType": "uint256",
          "name": "",
          "type": "uint256"
        }
      ],
      "stateMutability": "view",
      "type": "function"
    },
    {
      "inputs": [],
      "name": "owner",
      "outputs": [
        {
          "internalType": "address",
          "name": "",
          "type": "address"
        }
      ],
      "stateMutability": "view",
      "type": "function"
    },
    {
      "inputs": [],
      "name": "refund",
      "outputs": [],
      "stateMutability": "nonpayable",
      "type": "function"
    },
    {
      "inputs": [
        {
          "internalType": "address",
          "name": "_erc20Addr",
          "type": "address"
        }
      ],
      "name": "setErc20Addr",
      "outputs": [],
      "stateMutability": "nonpayable",
      "type": "function"
    },
    {
      "inputs": [
        {
          "internalType": "address",
          "name": "funder",
          "type": "address"
        },
        {
          "internalType": "uint256",
          "name": "amountToUpdate",
          "type": "uint256"
        }
      ],
      "name": "setFunderToAmount",
      "outputs": [],
      "stateMutability": "nonpayable",
      "type": "function"
    }
  ],
  "bytecode": "0x60806040526040518060400160405280600681526020017f46756e644d65000000000000000000000000000000000000000000000000000081525060039081610048919061038c565b506000600760006101000a81548160ff02191690831515021790555034801561007057600080fd5b506040516123ac3803806123ac8339818101604052810190610092919061048f565b33600260006101000a81548173ffffffffffffffffffffffffffffffffffffffff021916908373ffffffffffffffffffffffffffffffffffffffff16021790555073694aa1769357215de4fac081bf1f309adc325306600460006101000a81548173ffffffffffffffffffffffffffffffffffffffff021916908373ffffffffffffffffffffffffffffffffffffffff1602179055504260068190555080600581905550506104bc565b600081519050919050565b7f4e487b7100000000000000000000000000000000000000000000000000000000600052604160045260246000fd5b7f4e487b7100000000000000000000000000000000000000000000000000000000600052602260045260246000fd5b600060028204905060018216806101bd57607f821691505b6020821081036101d0576101cf610176565b5b50919050565b60008190508160005260206000209050919050565b60006020601f8301049050919050565b600082821b905092915050565b6000600883026102387fffffffffffffffffffffffffffffffffffffffffffffffffffffffffffffffff826101fb565b61024286836101fb565b95508019841693508086168417925050509392505050565b6000819050919050565b6000819050919050565b600061028961028461027f8461025a565b610264565b61025a565b9050919050565b6000819050919050565b6102a38361026e565b6102b76102af82610290565b848454610208565b825550505050565b600090565b6102cc6102bf565b6102d781848461029a565b505050565b5b818110156102fb576102f06000826102c4565b6001810190506102dd565b5050565b601f82111561034057610311816101d6565b61031a846101eb565b81016020851015610329578190505b61033d610335856101eb565b8301826102dc565b50505b505050565b600082821c905092915050565b600061036360001984600802610345565b1980831691505092915050565b600061037c8383610352565b9150826002028217905092915050565b6103958261013c565b67ffffffffffffffff8111156103ae576103ad610147565b5b6103b882546101a5565b6103c38282856102ff565b600060209050601f8311600181146103f657600084156103e4578287015190505b6103ee8582610370565b865550610456565b601f198416610404866101d6565b60005b8281101561042c57848901518255600182019150602085019450602081019050610407565b868310156104495784890151610445601f891682610352565b8355505b6001600288020188555050505b505050505050565b600080fd5b61046c8161025a565b811461047757600080fd5b50565b60008151905061048981610463565b92915050565b6000602082840312156104a5576104a461045e565b5b60006104b38482850161047a565b91505092915050565b611ee1806104cb6000396000f3fe6080604052600436106100fe5760003560e01c80639f883a0511610095578063bea4dfb511610064578063bea4dfb5146102c8578063d39cf006146102f3578063d953a8671461031c578063da4658e014610347578063f8b2cb4f14610372576100fe565b80639f883a0514610207578063a02a8bf514610244578063b60d428814610281578063b8b3d85b1461028b576100fe565b80637eeea7b2116100d15780637eeea7b21461018357806380f732651461019a5780638da5cb5b146101c55780638edd6eb6146101f0576100fe565b806302be8e4e1461010357806313ffff011461012c57806333c6a6eb14610155578063590e1ae31461016c575b600080fd5b34801561010f57600080fd5b5061012a600480360381019061012591906112c5565b6103af565b005b34801561013857600080fd5b50610153600480360381019061014e91906112c5565b610483565b005b34801561016157600080fd5b5061016a610557565b005b34801561017857600080fd5b506101816106d0565b005b34801561018f57600080fd5b5061019861091d565b005b3480156101a657600080fd5b506101af610a63565b6040516101bc919061130b565b60405180910390f35b3480156101d157600080fd5b506101da610a69565b6040516101e79190611335565b60405180910390f35b3480156101fc57600080fd5b50610205610a8f565b005b34801561021357600080fd5b5061022e600480360381019061022991906112c5565b610ca7565b60405161023b919061130b565b60405180910390f35b34801561025057600080fd5b5061026b60048036038101906102669190611496565b610cbf565b604051610278919061155e565b60405180910390f35b610289610f18565b005b34801561029757600080fd5b506102b260048036038101906102ad91906112c5565b611059565b6040516102bf919061130b565b60405180910390f35b3480156102d457600080fd5b506102dd6110a1565b6040516102ea9190611599565b60405180910390f35b3480156102ff57600080fd5b5061031a600480360381019061031591906115e0565b611142565b005b34801561032857600080fd5b50610331611219565b60405161033e919061130b565b60405180910390f35b34801561035357600080fd5b5061035c61121f565b604051610369919061163b565b60405180910390f35b34801561037e57600080fd5b50610399600480360381019061039491906112c5565b611232565b6040516103a6919061130b565b60405180910390f35b600260009054906101000a900473ffffffffffffffffffffffffffffffffffffffff1673ffffffffffffffffffffffffffffffffffffffff163373ffffffffffffffffffffffffffffffffffffffff161461043f576040517f08c379a0000000000000000000000000000000000000000000000000000000008152600401610436906116a2565b60405180910390fd5b80600260006101000a81548173ffffffffffffffffffffffffffffffffffffffff021916908373ffffffffffffffffffffffffffffffffffffffff16021790555050565b600260009054906101000a900473ffffffffffffffffffffffffffffffffffffffff1673ffffffffffffffffffffffffffffffffffffffff163373ffffffffffffffffffffffffffffffffffffffff1614610513576040517f08c379a000000000000000000000000000000000000000000000000000000000815260040161050a9061170e565b60405180910390fd5b80600760016101000a81548173ffffffffffffffffffffffffffffffffffffffff021916908373ffffffffffffffffffffffffffffffffffffffff16021790555050565b600260009054906101000a900473ffffffffffffffffffffffffffffffffffffffff1673ffffffffffffffffffffffffffffffffffffffff163373ffffffffffffffffffffffffffffffffffffffff16146105e7576040517f08c379a00000000000000000000000000000000000000000000000000000000081526004016105de9061170e565b60405180910390fd5b671bc16d674ec80000471015610632576040517f08c379a00000000000000000000000000000000000000000000000000000000081526004016106299061177a565b60405180910390fd5b6000600260009054906101000a900473ffffffffffffffffffffffffffffffffffffffff1673ffffffffffffffffffffffffffffffffffffffff166108fc479081150290604051600060405180830381858888f193505050509050806106cd576040517f08c379a00000000000000000000000000000000000000000000000000000000081526004016106c4906117e6565b60405180910390fd5b50565b426005546006546106e19190611835565b10610721576040517f08c379a0000000000000000000000000000000000000000000000000000000008152600401610718906118b5565b60405180910390fd5b60008060003373ffffffffffffffffffffffffffffffffffffffff1673ffffffffffffffffffffffffffffffffffffffff16815260200190815260200160002054116107a2576040517f08c379a000000000000000000000000000000000000000000000000000000000815260040161079990611921565b60405180910390fd5b671bc16d674ec8000047106107ec576040517f08c379a00000000000000000000000000000000000000000000000000000000081526004016107e39061198d565b60405180910390fd5b60003373ffffffffffffffffffffffffffffffffffffffff166000803373ffffffffffffffffffffffffffffffffffffffff1673ffffffffffffffffffffffffffffffffffffffff16815260200190815260200160002054604051610850906119de565b60006040518083038185875af1925050503d806000811461088d576040519150601f19603f3d011682016040523d82523d6000602084013e610892565b606091505b50509050806108d6576040517f08c379a00000000000000000000000000000000000000000000000000000000081526004016108cd90611a3f565b60405180910390fd5b60008060003373ffffffffffffffffffffffffffffffffffffffff1673ffffffffffffffffffffffffffffffffffffffff1681526020019081526020016000208190555050565b600260009054906101000a900473ffffffffffffffffffffffffffffffffffffffff1673ffffffffffffffffffffffffffffffffffffffff163373ffffffffffffffffffffffffffffffffffffffff16146109ad576040517f08c379a00000000000000000000000000000000000000000000000000000000081526004016109a49061170e565b60405180910390fd5b671bc16d674ec800004710156109f8576040517f08c379a00000000000000000000000000000000000000000000000000000000081526004016109ef90611aab565b60405180910390fd5b600260009054906101000a900473ffffffffffffffffffffffffffffffffffffffff1673ffffffffffffffffffffffffffffffffffffffff166108fc479081150290604051600060405180830381858888f19350505050158015610a60573d6000803e3d6000fd5b50565b60065481565b600260009054906101000a900473ffffffffffffffffffffffffffffffffffffffff1681565b600260009054906101000a900473ffffffffffffffffffffffffffffffffffffffff1673ffffffffffffffffffffffffffffffffffffffff163373ffffffffffffffffffffffffffffffffffffffff1614610b1f576040517f08c379a0000000000000000000000000000000000000000000000000000000008152600401610b169061170e565b60405180910390fd5b671bc16d674ec80000471015610b6a576040517f08c379a0000000000000000000000000000000000000000000000000000000008152600401610b6190611b17565b60405180910390fd5b42600554600654610b7b9190611835565b10610bbb576040517f08c379a0000000000000000000000000000000000000000000000000000000008152600401610bb2906118b5565b60405180910390fd5b6000600260009054906101000a900473ffffffffffffffffffffffffffffffffffffffff1673ffffffffffffffffffffffffffffffffffffffff1647604051610c03906119de565b60006040518083038185875af1925050503d8060008114610c40576040519150601f19603f3d011682016040523d82523d6000602084013e610c45565b606091505b5050905080610c89576040517f08c379a0000000000000000000000000000000000000000000000000000000008152600401610c8090611b83565b60405180910390fd5b6001600760006101000a81548160ff02191690831515021790555050565b60006020528060005260406000206000915090505481565b6060600260009054906101000a900473ffffffffffffffffffffffffffffffffffffffff1673ffffffffffffffffffffffffffffffffffffffff163373ffffffffffffffffffffffffffffffffffffffff1614610d51576040517f08c379a0000000000000000000000000000000000000000000000000000000008152600401610d489061170e565b60405180910390fd5b671bc16d674ec80000471015610d9c576040517f08c379a0000000000000000000000000000000000000000000000000000000008152600401610d9390611b17565b60405180910390fd5b600080600260009054906101000a900473ffffffffffffffffffffffffffffffffffffffff1673ffffffffffffffffffffffffffffffffffffffff164785604051602401610dea919061155e565b6040516020818303038152906040527f2493d434000000000000000000000000000000000000000000000000000000007bffffffffffffffffffffffffffffffffffffffffffffffffffffffff19166020820180517bffffffffffffffffffffffffffffffffffffffffffffffffffffffff8381831617835250505050604051610e749190611bdf565b60006040518083038185875af1925050503d8060008114610eb1576040519150601f19603f3d011682016040523d82523d6000602084013e610eb6565b606091505b509150915081610efb576040517f08c379a0000000000000000000000000000000000000000000000000000000008152600401610ef290611b83565b60405180910390fd5b80806020019051810190610f0f9190611c66565b92505050919050565b670de0b6b3a7640000341015610f63576040517f08c379a0000000000000000000000000000000000000000000000000000000008152600401610f5a90611cfb565b60405180910390fd5b346000803373ffffffffffffffffffffffffffffffffffffffff1673ffffffffffffffffffffffffffffffffffffffff168152602001908152602001600020819055506001339080600181540180825580915050600190039060005260206000200160009091909190916101000a81548173ffffffffffffffffffffffffffffffffffffffff021916908373ffffffffffffffffffffffffffffffffffffffff1602179055503373ffffffffffffffffffffffffffffffffffffffff167f5af8184bef8e4b45eb9f6ed7734d04da38ced226495548f46e0c8ff8d7d9a5243460405161104f919061130b565b60405180910390a2565b60008060008373ffffffffffffffffffffffffffffffffffffffff1673ffffffffffffffffffffffffffffffffffffffff168152602001908152602001600020549050919050565b600080600460009054906101000a900473ffffffffffffffffffffffffffffffffffffffff1673ffffffffffffffffffffffffffffffffffffffff1663feaf968c6040518163ffffffff1660e01b815260040160a060405180830381865afa158015611111573d6000803e3d6000fd5b505050506040513d601f19601f820116820180604052508101906111359190611d9e565b5050509150508091505090565b600760019054906101000a900473ffffffffffffffffffffffffffffffffffffffff1673ffffffffffffffffffffffffffffffffffffffff163373ffffffffffffffffffffffffffffffffffffffff16146111d2576040517f08c379a00000000000000000000000000000000000000000000000000000000081526004016111c990611e8b565b60405180910390fd5b806000808473ffffffffffffffffffffffffffffffffffffffff1673ffffffffffffffffffffffffffffffffffffffff168152602001908152602001600020819055505050565b60055481565b600760009054906101000a900460ff1681565b60008173ffffffffffffffffffffffffffffffffffffffff16319050919050565b6000604051905090565b600080fd5b600080fd5b600073ffffffffffffffffffffffffffffffffffffffff82169050919050565b600061129282611267565b9050919050565b6112a281611287565b81146112ad57600080fd5b50565b6000813590506112bf81611299565b92915050565b6000602082840312156112db576112da61125d565b5b60006112e9848285016112b0565b91505092915050565b6000819050919050565b611305816112f2565b82525050565b600060208201905061132060008301846112fc565b92915050565b61132f81611287565b82525050565b600060208201905061134a6000830184611326565b92915050565b600080fd5b600080fd5b6000601f19601f8301169050919050565b7f4e487b7100000000000000000000000000000000000000000000000000000000600052604160045260246000fd5b6113a38261135a565b810181811067ffffffffffffffff821117156113c2576113c161136b565b5b80604052505050565b60006113d5611253565b90506113e1828261139a565b919050565b600067ffffffffffffffff8211156114015761140061136b565b5b61140a8261135a565b9050602081019050919050565b82818337600083830152505050565b6000611439611434846113e6565b6113cb565b90508281526020810184848401111561145557611454611355565b5b611460848285611417565b509392505050565b600082601f83011261147d5761147c611350565b5b813561148d848260208601611426565b91505092915050565b6000602082840312156114ac576114ab61125d565b5b600082013567ffffffffffffffff8111156114ca576114c9611262565b5b6114d684828501611468565b91505092915050565b600081519050919050565b600082825260208201905092915050565b60005b838110156115195780820151818401526020810190506114fe565b60008484015250505050565b6000611530826114df565b61153a81856114ea565b935061154a8185602086016114fb565b6115538161135a565b840191505092915050565b600060208201905081810360008301526115788184611525565b905092915050565b6000819050919050565b61159381611580565b82525050565b60006020820190506115ae600083018461158a565b92915050565b6115bd816112f2565b81146115c857600080fd5b50565b6000813590506115da816115b4565b92915050565b600080604083850312156115f7576115f661125d565b5b6000611605858286016112b0565b9250506020611616858286016115cb565b9150509250929050565b60008115159050919050565b61163581611620565b82525050565b6000602082019050611650600083018461162c565b92915050565b7f796f7520617265206e6f74206f776e6572000000000000000000000000000000600082015250565b600061168c6011836114ea565b915061169782611656565b602082019050919050565b600060208201905081810360008301526116bb8161167f565b9050919050565b7f4f6e6c79206f776e65722063616e2063616c6c00000000000000000000000000600082015250565b60006116f86013836114ea565b9150611703826116c2565b602082019050919050565b60006020820190508181036000830152611727816116eb565b9050919050565b7f4e6f7420656e6f7567682066756e642073656e64000000000000000000000000600082015250565b60006117646014836114ea565b915061176f8261172e565b602082019050919050565b6000602082019050818103600083015261179381611757565b9050919050565b7f4661696c656420746f2073656e64000000000000000000000000000000000000600082015250565b60006117d0600e836114ea565b91506117db8261179a565b602082019050919050565b600060208201905081810360008301526117ff816117c3565b9050919050565b7f4e487b7100000000000000000000000000000000000000000000000000000000600052601160045260246000fd5b6000611840826112f2565b915061184b836112f2565b925082820190508082111561186357611862611806565b5b92915050565b7f46756e647320617265206c6f636b656400000000000000000000000000000000600082015250565b600061189f6010836114ea565b91506118aa82611869565b602082019050919050565b600060208201905081810360008301526118ce81611892565b9050919050565b7f4e6f2066756e6420746f20726566756e64000000000000000000000000000000600082015250565b600061190b6011836114ea565b9150611916826118d5565b602082019050919050565b6000602082019050818103600083015261193a816118fe565b9050919050565b7f46756e6420746172676574206e6f742072656163686564000000000000000000600082015250565b60006119776017836114ea565b915061198282611941565b602082019050919050565b600060208201905081810360008301526119a68161196a565b9050919050565b600081905092915050565b50565b60006119c86000836119ad565b91506119d3826119b8565b600082019050919050565b60006119e9826119bb565b9150819050919050565b7f4661696c656420746f20726566756e6400000000000000000000000000000000600082015250565b6000611a296010836114ea565b9150611a34826119f3565b602082019050919050565b60006020820190508181036000830152611a5881611a1c565b9050919050565b7f4e6f7420656e6f7567682066756e64207472616e736665720000000000000000600082015250565b6000611a956018836114ea565b9150611aa082611a5f565b602082019050919050565b60006020820190508181036000830152611ac481611a88565b9050919050565b7f4e6f7420656e6f7567682066756e640000000000000000000000000000000000600082015250565b6000611b01600f836114ea565b9150611b0c82611acb565b602082019050919050565b60006020820190508181036000830152611b3081611af4565b9050919050565b7f4661696c656420746f2063616c6c000000000000000000000000000000000000600082015250565b6000611b6d600e836114ea565b9150611b7882611b37565b602082019050919050565b60006020820190508181036000830152611b9c81611b60565b9050919050565b600081519050919050565b6000611bb982611ba3565b611bc381856119ad565b9350611bd38185602086016114fb565b80840191505092915050565b6000611beb8284611bae565b915081905092915050565b6000611c09611c04846113e6565b6113cb565b905082815260208101848484011115611c2557611c24611355565b5b611c308482856114fb565b509392505050565b600082601f830112611c4d57611c4c611350565b5b8151611c5d848260208601611bf6565b91505092915050565b600060208284031215611c7c57611c7b61125d565b5b600082015167ffffffffffffffff811115611c9a57611c99611262565b5b611ca684828501611c38565b91505092915050565b7f6e656564206d6f72652065746800000000000000000000000000000000000000600082015250565b6000611ce5600d836114ea565b9150611cf082611caf565b602082019050919050565b60006020820190508181036000830152611d1481611cd8565b9050919050565b600069ffffffffffffffffffff82169050919050565b611d3a81611d1b565b8114611d4557600080fd5b50565b600081519050611d5781611d31565b92915050565b611d6681611580565b8114611d7157600080fd5b50565b600081519050611d8381611d5d565b92915050565b600081519050611d98816115b4565b92915050565b600080600080600060a08688031215611dba57611db961125d565b5b6000611dc888828901611d48565b9550506020611dd988828901611d74565b9450506040611dea88828901611d89565b9350506060611dfb88828901611d89565b9250506080611e0c88828901611d48565b9150509295509295909350565b7f796f7520646f206e6f742068617665207065726d697373696f6e20746f20636160008201527f6c6c20746869732066756e74696f6e0000000000000000000000000000000000602082015250565b6000611e75602f836114ea565b9150611e8082611e19565b604082019050919050565b60006020820190508181036000830152611ea481611e68565b905091905056fea26469706673582212202b412296499865214f4b3f1f6aff42cbf04bcbd5a4437fba80ee3a9b778a827c64736f6c634300081c0033",
  "linkReferences": {},
  "deployedLinkReferences": {}
}