{
  "_format": "hh-sol-artifact-1",
  "contractName": "FundMe",
  "sourceName": "contracts/FundMe.sol",
  "abi": [
    {
      "inputs": [
        {
          "internalType": "uint256",
          "name": "_lockTimePeriod",
          "type": "uint256"
        }
      ],
      "stateMutability": "nonpayable",
      "type": "constructor"
    },
    {
      "inputs": [
        {
          "internalType": "address",
          "name": "newAddress",
          "type": "address"
        }
      ],
      "name": "changeOwnerShip",
      "outputs": [],
      "stateMutability": "nonpayable",
      "type": "function"
    },
    {
      "inputs": [],
      "name": "deployTimeStamp",
      "outputs": [
        {
          "internalType": "uint256",
          "name": "",
          "type": "uint256"
        }
      ],
      "stateMutability": "view",
      "type": "function"
    },
    {
      "inputs": [],
      "name": "fund",
      "outputs": [],
      "stateMutability": "payable",
      "type": "function"
    },
    {
      "inputs": [
        {
          "internalType": "address",
          "name": "",
          "type": "address"
        }
      ],
      "name": "fundersToAmount",
      "outputs": [
        {
          "internalType": "uint256",
          "name": "",
          "type": "uint256"
        }
      ],
      "stateMutability": "view",
      "type": "function"
    },
    {
      "inputs": [
        {
          "internalType": "address",
          "name": "_address",
          "type": "address"
        }
      ],
      "name": "getBalance",
      "outputs": [
        {
          "internalType": "uint256",
          "name": "",
          "type": "uint256"
        }
      ],
      "stateMutability": "view",
      "type": "function"
    },
    {
      "inputs": [],
      "name": "getChainlinkDataFeedLatestAnswer",
      "outputs": [
        {
          "internalType": "int256",
          "name": "",
          "type": "int256"
        }
      ],
      "stateMutability": "view",
      "type": "function"
    },
    {
      "inputs": [],
      "name": "getFund",
      "outputs": [],
      "stateMutability": "nonpayable",
      "type": "function"
    },
    {
      "inputs": [
        {
          "internalType": "string",
          "name": "param",
          "type": "string"
        }
      ],
      "name": "getFundFromCall",
      "outputs": [
        {
          "internalType": "string",
          "name": "",
          "type": "string"
        }
      ],
      "stateMutability": "nonpayable",
      "type": "function"
    },
    {
      "inputs": [],
      "name": "getFundFromSend",
      "outputs": [],
      "stateMutability": "nonpayable",
      "type": "function"
    },
    {
      "inputs": [],
      "name": "getFundFromTransfer",
      "outputs": [],
      "stateMutability": "nonpayable",
      "type": "function"
    },
    {
      "inputs": [],
      "name": "getFundSuccess",
      "outputs": [
        {
          "internalType": "bool",
          "name": "",
          "type": "bool"
        }
      ],
      "stateMutability": "view",
      "type": "function"
    },
    {
      "inputs": [
        {
          "internalType": "address",
          "name": "_address",
          "type": "address"
        }
      ],
      "name": "getFunderBalance",
      "outputs": [
        {
          "internalType": "uint256",
          "name": "",
          "type": "uint256"
        }
      ],
      "stateMutability": "view",
      "type": "function"
    },
    {
      "inputs": [],
      "name": "lockTimePeriod",
      "outputs": [
        {
          "internalType": "uint256",
          "name": "",
          "type": "uint256"
        }
      ],
      "stateMutability": "view",
      "type": "function"
    },
    {
      "inputs": [],
      "name": "owner",
      "outputs": [
        {
          "internalType": "address",
          "name": "",
          "type": "address"
        }
      ],
      "stateMutability": "view",
      "type": "function"
    },
    {
      "inputs": [],
      "name": "refund",
      "outputs": [],
      "stateMutability": "nonpayable",
      "type": "function"
    },
    {
      "inputs": [
        {
          "internalType": "address",
          "name": "_erc20Addr",
          "type": "address"
        }
      ],
      "name": "setErc20Addr",
      "outputs": [],
      "stateMutability": "nonpayable",
      "type": "function"
    },
    {
      "inputs": [
        {
          "internalType": "address",
          "name": "funder",
          "type": "address"
        },
        {
          "internalType": "uint256",
          "name": "amountToUpdate",
          "type": "uint256"
        }
      ],
      "name": "setFunderToAmount",
      "outputs": [],
      "stateMutability": "nonpayable",
      "type": "function"
    }
  ],
  "bytecode": "0x60806040526040518060400160405280600681526020017f46756e644d65000000000000000000000000000000000000000000000000000081525060039081610048919061038c565b506000600760006101000a81548160ff02191690831515021790555034801561007057600080fd5b5060405161235e38038061235e8339818101604052810190610092919061048f565b33600260006101000a81548173ffffffffffffffffffffffffffffffffffffffff021916908373ffffffffffffffffffffffffffffffffffffffff16021790555073694aa1769357215de4fac081bf1f309adc325306600460006101000a81548173ffffffffffffffffffffffffffffffffffffffff021916908373ffffffffffffffffffffffffffffffffffffffff1602179055504260068190555080600581905550506104bc565b600081519050919050565b7f4e487b7100000000000000000000000000000000000000000000000000000000600052604160045260246000fd5b7f4e487b7100000000000000000000000000000000000000000000000000000000600052602260045260246000fd5b600060028204905060018216806101bd57607f821691505b6020821081036101d0576101cf610176565b5b50919050565b60008190508160005260206000209050919050565b60006020601f8301049050919050565b600082821b905092915050565b6000600883026102387fffffffffffffffffffffffffffffffffffffffffffffffffffffffffffffffff826101fb565b61024286836101fb565b95508019841693508086168417925050509392505050565b6000819050919050565b6000819050919050565b600061028961028461027f8461025a565b610264565b61025a565b9050919050565b6000819050919050565b6102a38361026e565b6102b76102af82610290565b848454610208565b825550505050565b600090565b6102cc6102bf565b6102d781848461029a565b505050565b5b818110156102fb576102f06000826102c4565b6001810190506102dd565b5050565b601f82111561034057610311816101d6565b61031a846101eb565b81016020851015610329578190505b61033d610335856101eb565b8301826102dc565b50505b505050565b600082821c905092915050565b600061036360001984600802610345565b1980831691505092915050565b600061037c8383610352565b9150826002028217905092915050565b6103958261013c565b67ffffffffffffffff8111156103ae576103ad610147565b5b6103b882546101a5565b6103c38282856102ff565b600060209050601f8311600181146103f657600084156103e4578287015190505b6103ee8582610370565b865550610456565b601f198416610404866101d6565b60005b8281101561042c57848901518255600182019150602085019450602081019050610407565b868310156104495784890151610445601f891682610352565b8355505b6001600288020188555050505b505050505050565b600080fd5b61046c8161025a565b811461047757600080fd5b50565b60008151905061048981610463565b92915050565b6000602082840312156104a5576104a461045e565b5b60006104b38482850161047a565b91505092915050565b611e93806104cb6000396000f3fe6080604052600436106100fe5760003560e01c80639f883a0511610095578063bea4dfb511610064578063bea4dfb5146102c8578063d39cf006146102f3578063d953a8671461031c578063da4658e014610347578063f8b2cb4f14610372576100fe565b80639f883a0514610207578063a02a8bf514610244578063b60d428814610281578063b8b3d85b1461028b576100fe565b80637eeea7b2116100d15780637eeea7b21461018357806380f732651461019a5780638da5cb5b146101c55780638edd6eb6146101f0576100fe565b806302be8e4e1461010357806313ffff011461012c57806333c6a6eb14610155578063590e1ae31461016c575b600080fd5b34801561010f57600080fd5b5061012a60048036038101906101259190611277565b6103af565b005b34801561013857600080fd5b50610153600480360381019061014e9190611277565b610483565b005b34801561016157600080fd5b5061016a610557565b005b34801561017857600080fd5b506101816106d0565b005b34801561018f57600080fd5b5061019861091d565b005b3480156101a657600080fd5b506101af610a63565b6040516101bc91906112bd565b60405180910390f35b3480156101d157600080fd5b506101da610a69565b6040516101e791906112e7565b60405180910390f35b3480156101fc57600080fd5b50610205610a8f565b005b34801561021357600080fd5b5061022e60048036038101906102299190611277565b610ca7565b60405161023b91906112bd565b60405180910390f35b34801561025057600080fd5b5061026b60048036038101906102669190611448565b610cbf565b6040516102789190611510565b60405180910390f35b610289610f18565b005b34801561029757600080fd5b506102b260048036038101906102ad9190611277565b61100b565b6040516102bf91906112bd565b60405180910390f35b3480156102d457600080fd5b506102dd611053565b6040516102ea919061154b565b60405180910390f35b3480156102ff57600080fd5b5061031a60048036038101906103159190611592565b6110f4565b005b34801561032857600080fd5b506103316111cb565b60405161033e91906112bd565b60405180910390f35b34801561035357600080fd5b5061035c6111d1565b60405161036991906115ed565b60405180910390f35b34801561037e57600080fd5b5061039960048036038101906103949190611277565b6111e4565b6040516103a691906112bd565b60405180910390f35b600260009054906101000a900473ffffffffffffffffffffffffffffffffffffffff1673ffffffffffffffffffffffffffffffffffffffff163373ffffffffffffffffffffffffffffffffffffffff161461043f576040517f08c379a000000000000000000000000000000000000000000000000000000000815260040161043690611654565b60405180910390fd5b80600260006101000a81548173ffffffffffffffffffffffffffffffffffffffff021916908373ffffffffffffffffffffffffffffffffffffffff16021790555050565b600260009054906101000a900473ffffffffffffffffffffffffffffffffffffffff1673ffffffffffffffffffffffffffffffffffffffff163373ffffffffffffffffffffffffffffffffffffffff1614610513576040517f08c379a000000000000000000000000000000000000000000000000000000000815260040161050a906116c0565b60405180910390fd5b80600760016101000a81548173ffffffffffffffffffffffffffffffffffffffff021916908373ffffffffffffffffffffffffffffffffffffffff16021790555050565b600260009054906101000a900473ffffffffffffffffffffffffffffffffffffffff1673ffffffffffffffffffffffffffffffffffffffff163373ffffffffffffffffffffffffffffffffffffffff16146105e7576040517f08c379a00000000000000000000000000000000000000000000000000000000081526004016105de906116c0565b60405180910390fd5b671bc16d674ec80000471015610632576040517f08c379a00000000000000000000000000000000000000000000000000000000081526004016106299061172c565b60405180910390fd5b6000600260009054906101000a900473ffffffffffffffffffffffffffffffffffffffff1673ffffffffffffffffffffffffffffffffffffffff166108fc479081150290604051600060405180830381858888f193505050509050806106cd576040517f08c379a00000000000000000000000000000000000000000000000000000000081526004016106c490611798565b60405180910390fd5b50565b426005546006546106e191906117e7565b10610721576040517f08c379a000000000000000000000000000000000000000000000000000000000815260040161071890611867565b60405180910390fd5b60008060003373ffffffffffffffffffffffffffffffffffffffff1673ffffffffffffffffffffffffffffffffffffffff16815260200190815260200160002054116107a2576040517f08c379a0000000000000000000000000000000000000000000000000000000008152600401610799906118d3565b60405180910390fd5b671bc16d674ec8000047106107ec576040517f08c379a00000000000000000000000000000000000000000000000000000000081526004016107e39061193f565b60405180910390fd5b60003373ffffffffffffffffffffffffffffffffffffffff166000803373ffffffffffffffffffffffffffffffffffffffff1673ffffffffffffffffffffffffffffffffffffffff1681526020019081526020016000205460405161085090611990565b60006040518083038185875af1925050503d806000811461088d576040519150601f19603f3d011682016040523d82523d6000602084013e610892565b606091505b50509050806108d6576040517f08c379a00000000000000000000000000000000000000000000000000000000081526004016108cd906119f1565b60405180910390fd5b60008060003373ffffffffffffffffffffffffffffffffffffffff1673ffffffffffffffffffffffffffffffffffffffff1681526020019081526020016000208190555050565b600260009054906101000a900473ffffffffffffffffffffffffffffffffffffffff1673ffffffffffffffffffffffffffffffffffffffff163373ffffffffffffffffffffffffffffffffffffffff16146109ad576040517f08c379a00000000000000000000000000000000000000000000000000000000081526004016109a4906116c0565b60405180910390fd5b671bc16d674ec800004710156109f8576040517f08c379a00000000000000000000000000000000000000000000000000000000081526004016109ef90611a5d565b60405180910390fd5b600260009054906101000a900473ffffffffffffffffffffffffffffffffffffffff1673ffffffffffffffffffffffffffffffffffffffff166108fc479081150290604051600060405180830381858888f19350505050158015610a60573d6000803e3d6000fd5b50565b60065481565b600260009054906101000a900473ffffffffffffffffffffffffffffffffffffffff1681565b600260009054906101000a900473ffffffffffffffffffffffffffffffffffffffff1673ffffffffffffffffffffffffffffffffffffffff163373ffffffffffffffffffffffffffffffffffffffff1614610b1f576040517f08c379a0000000000000000000000000000000000000000000000000000000008152600401610b16906116c0565b60405180910390fd5b671bc16d674ec80000471015610b6a576040517f08c379a0000000000000000000000000000000000000000000000000000000008152600401610b6190611ac9565b60405180910390fd5b42600554600654610b7b91906117e7565b10610bbb576040517f08c379a0000000000000000000000000000000000000000000000000000000008152600401610bb290611867565b60405180910390fd5b6000600260009054906101000a900473ffffffffffffffffffffffffffffffffffffffff1673ffffffffffffffffffffffffffffffffffffffff1647604051610c0390611990565b60006040518083038185875af1925050503d8060008114610c40576040519150601f19603f3d011682016040523d82523d6000602084013e610c45565b606091505b5050905080610c89576040517f08c379a0000000000000000000000000000000000000000000000000000000008152600401610c8090611b35565b60405180910390fd5b6001600760006101000a81548160ff02191690831515021790555050565b60006020528060005260406000206000915090505481565b6060600260009054906101000a900473ffffffffffffffffffffffffffffffffffffffff1673ffffffffffffffffffffffffffffffffffffffff163373ffffffffffffffffffffffffffffffffffffffff1614610d51576040517f08c379a0000000000000000000000000000000000000000000000000000000008152600401610d48906116c0565b60405180910390fd5b671bc16d674ec80000471015610d9c576040517f08c379a0000000000000000000000000000000000000000000000000000000008152600401610d9390611ac9565b60405180910390fd5b600080600260009054906101000a900473ffffffffffffffffffffffffffffffffffffffff1673ffffffffffffffffffffffffffffffffffffffff164785604051602401610dea9190611510565b6040516020818303038152906040527f2493d434000000000000000000000000000000000000000000000000000000007bffffffffffffffffffffffffffffffffffffffffffffffffffffffff19166020820180517bffffffffffffffffffffffffffffffffffffffffffffffffffffffff8381831617835250505050604051610e749190611b91565b60006040518083038185875af1925050503d8060008114610eb1576040519150601f19603f3d011682016040523d82523d6000602084013e610eb6565b606091505b509150915081610efb576040517f08c379a0000000000000000000000000000000000000000000000000000000008152600401610ef290611b35565b60405180910390fd5b80806020019051810190610f0f9190611c18565b92505050919050565b670de0b6b3a7640000341015610f63576040517f08c379a0000000000000000000000000000000000000000000000000000000008152600401610f5a90611cad565b60405180910390fd5b346000803373ffffffffffffffffffffffffffffffffffffffff1673ffffffffffffffffffffffffffffffffffffffff168152602001908152602001600020819055506001339080600181540180825580915050600190039060005260206000200160009091909190916101000a81548173ffffffffffffffffffffffffffffffffffffffff021916908373ffffffffffffffffffffffffffffffffffffffff160217905550565b60008060008373ffffffffffffffffffffffffffffffffffffffff1673ffffffffffffffffffffffffffffffffffffffff168152602001908152602001600020549050919050565b600080600460009054906101000a900473ffffffffffffffffffffffffffffffffffffffff1673ffffffffffffffffffffffffffffffffffffffff1663feaf968c6040518163ffffffff1660e01b815260040160a060405180830381865afa1580156110c3573d6000803e3d6000fd5b505050506040513d601f19601f820116820180604052508101906110e79190611d50565b5050509150508091505090565b600760019054906101000a900473ffffffffffffffffffffffffffffffffffffffff1673ffffffffffffffffffffffffffffffffffffffff163373ffffffffffffffffffffffffffffffffffffffff1614611184576040517f08c379a000000000000000000000000000000000000000000000000000000000815260040161117b90611e3d565b60405180910390fd5b806000808473ffffffffffffffffffffffffffffffffffffffff1673ffffffffffffffffffffffffffffffffffffffff168152602001908152602001600020819055505050565b60055481565b600760009054906101000a900460ff1681565b60008173ffffffffffffffffffffffffffffffffffffffff16319050919050565b6000604051905090565b600080fd5b600080fd5b600073ffffffffffffffffffffffffffffffffffffffff82169050919050565b600061124482611219565b9050919050565b61125481611239565b811461125f57600080fd5b50565b6000813590506112718161124b565b92915050565b60006020828403121561128d5761128c61120f565b5b600061129b84828501611262565b91505092915050565b6000819050919050565b6112b7816112a4565b82525050565b60006020820190506112d260008301846112ae565b92915050565b6112e181611239565b82525050565b60006020820190506112fc60008301846112d8565b92915050565b600080fd5b600080fd5b6000601f19601f8301169050919050565b7f4e487b7100000000000000000000000000000000000000000000000000000000600052604160045260246000fd5b6113558261130c565b810181811067ffffffffffffffff821117156113745761137361131d565b5b80604052505050565b6000611387611205565b9050611393828261134c565b919050565b600067ffffffffffffffff8211156113b3576113b261131d565b5b6113bc8261130c565b9050602081019050919050565b82818337600083830152505050565b60006113eb6113e684611398565b61137d565b90508281526020810184848401111561140757611406611307565b5b6114128482856113c9565b509392505050565b600082601f83011261142f5761142e611302565b5b813561143f8482602086016113d8565b91505092915050565b60006020828403121561145e5761145d61120f565b5b600082013567ffffffffffffffff81111561147c5761147b611214565b5b6114888482850161141a565b91505092915050565b600081519050919050565b600082825260208201905092915050565b60005b838110156114cb5780820151818401526020810190506114b0565b60008484015250505050565b60006114e282611491565b6114ec818561149c565b93506114fc8185602086016114ad565b6115058161130c565b840191505092915050565b6000602082019050818103600083015261152a81846114d7565b905092915050565b6000819050919050565b61154581611532565b82525050565b6000602082019050611560600083018461153c565b92915050565b61156f816112a4565b811461157a57600080fd5b50565b60008135905061158c81611566565b92915050565b600080604083850312156115a9576115a861120f565b5b60006115b785828601611262565b92505060206115c88582860161157d565b9150509250929050565b60008115159050919050565b6115e7816115d2565b82525050565b600060208201905061160260008301846115de565b92915050565b7f796f7520617265206e6f74206f776e6572000000000000000000000000000000600082015250565b600061163e60118361149c565b915061164982611608565b602082019050919050565b6000602082019050818103600083015261166d81611631565b9050919050565b7f4f6e6c79206f776e65722063616e2063616c6c00000000000000000000000000600082015250565b60006116aa60138361149c565b91506116b582611674565b602082019050919050565b600060208201905081810360008301526116d98161169d565b9050919050565b7f4e6f7420656e6f7567682066756e642073656e64000000000000000000000000600082015250565b600061171660148361149c565b9150611721826116e0565b602082019050919050565b6000602082019050818103600083015261174581611709565b9050919050565b7f4661696c656420746f2073656e64000000000000000000000000000000000000600082015250565b6000611782600e8361149c565b915061178d8261174c565b602082019050919050565b600060208201905081810360008301526117b181611775565b9050919050565b7f4e487b7100000000000000000000000000000000000000000000000000000000600052601160045260246000fd5b60006117f2826112a4565b91506117fd836112a4565b9250828201905080821115611815576118146117b8565b5b92915050565b7f46756e647320617265206c6f636b656400000000000000000000000000000000600082015250565b600061185160108361149c565b915061185c8261181b565b602082019050919050565b6000602082019050818103600083015261188081611844565b9050919050565b7f4e6f2066756e6420746f20726566756e64000000000000000000000000000000600082015250565b60006118bd60118361149c565b91506118c882611887565b602082019050919050565b600060208201905081810360008301526118ec816118b0565b9050919050565b7f46756e6420746172676574206e6f742072656163686564000000000000000000600082015250565b600061192960178361149c565b9150611934826118f3565b602082019050919050565b600060208201905081810360008301526119588161191c565b9050919050565b600081905092915050565b50565b600061197a60008361195f565b91506119858261196a565b600082019050919050565b600061199b8261196d565b9150819050919050565b7f4661696c656420746f20726566756e6400000000000000000000000000000000600082015250565b60006119db60108361149c565b91506119e6826119a5565b602082019050919050565b60006020820190508181036000830152611a0a816119ce565b9050919050565b7f4e6f7420656e6f7567682066756e64207472616e736665720000000000000000600082015250565b6000611a4760188361149c565b9150611a5282611a11565b602082019050919050565b60006020820190508181036000830152611a7681611a3a565b9050919050565b7f4e6f7420656e6f7567682066756e640000000000000000000000000000000000600082015250565b6000611ab3600f8361149c565b9150611abe82611a7d565b602082019050919050565b60006020820190508181036000830152611ae281611aa6565b9050919050565b7f4661696c656420746f2063616c6c000000000000000000000000000000000000600082015250565b6000611b1f600e8361149c565b9150611b2a82611ae9565b602082019050919050565b60006020820190508181036000830152611b4e81611b12565b9050919050565b600081519050919050565b6000611b6b82611b55565b611b75818561195f565b9350611b858185602086016114ad565b80840191505092915050565b6000611b9d8284611b60565b915081905092915050565b6000611bbb611bb684611398565b61137d565b905082815260208101848484011115611bd757611bd6611307565b5b611be28482856114ad565b509392505050565b600082601f830112611bff57611bfe611302565b5b8151611c0f848260208601611ba8565b91505092915050565b600060208284031215611c2e57611c2d61120f565b5b600082015167ffffffffffffffff811115611c4c57611c4b611214565b5b611c5884828501611bea565b91505092915050565b7f6e656564206d6f72652065746800000000000000000000000000000000000000600082015250565b6000611c97600d8361149c565b9150611ca282611c61565b602082019050919050565b60006020820190508181036000830152611cc681611c8a565b9050919050565b600069ffffffffffffffffffff82169050919050565b611cec81611ccd565b8114611cf757600080fd5b50565b600081519050611d0981611ce3565b92915050565b611d1881611532565b8114611d2357600080fd5b50565b600081519050611d3581611d0f565b92915050565b600081519050611d4a81611566565b92915050565b600080600080600060a08688031215611d6c57611d6b61120f565b5b6000611d7a88828901611cfa565b9550506020611d8b88828901611d26565b9450506040611d9c88828901611d3b565b9350506060611dad88828901611d3b565b9250506080611dbe88828901611cfa565b9150509295509295909350565b7f796f7520646f206e6f742068617665207065726d697373696f6e20746f20636160008201527f6c6c20746869732066756e74696f6e0000000000000000000000000000000000602082015250565b6000611e27602f8361149c565b9150611e3282611dcb565b604082019050919050565b60006020820190508181036000830152611e5681611e1a565b905091905056fea26469706673582212204b56e74de96d6df76a30b74b99b5c27e20d12b65ab9434a4546dc76a1d4e819964736f6c634300081c0033",
  "linkReferences": {},
  "deployedLinkReferences": {}
}